:100000000C942A000C9447000C9447000C94470071
:100010000C9447000C9447000C9447000C94470044
:100020000C9447000C9447000C9447000C94470034
:100030000C9447000C9447000C9447000C94470024
:100040000C9447000C9447000C9447000C94470014
:100050000C94470011241FBECFE5D8E0DEBFCDBF12
:1000600010E0A0E6B0E0ECE6FFE202C005900D92E1
:10007000AC39B107D9F710E0ACE9B0E001C01D928E
:10008000A43AB107E1F70E94F30D0C94B4170C9455
:100090000000EF92FF920F931F937B018C0120E0F1
:1000A00030E040E05FE40E94490388238CF0C801FF
:1000B000B70120E030E040E05FE40E94C1010E940F
:1000C000A9039B01AC01205030404040504806C07D
:1000D000C801B7010E94A9039B01AC01B901CA0183
:1000E0001F910F91FF90EF900895A0E0B0E0EBE733
:1000F000F0E00C947D17DC012B01FA019C91923009
:1001000008F439C1EB018881823008F433C194309E
:1001100069F4843009F02FC111969C91119789815F
:10012000981709F428C1ABE6B0E025C1843009F482
:1001300021C18230A9F4923009F01DC19A01AD01AC
:1001400088E0EA010990AE01E90109929E0181501F
:10015000C1F7E201898111969C918923818308C1AD
:10016000923009F407C112962D903C901397EB0141
:100170008A819B811496AD90BD90CD90DC901797AD
:10018000EC80FD800E811F819101281B390BB90184
:1001900037FF04C066277727621B730B6032710537
:1001A0000CF061C0121613066CF537014801062EDB
:1001B00004C096948794779467940A94D2F721E0C8
:1001C00030E040E050E004C0220F331F441F551FB1
:1001D0006A95D2F721503040404050402E213F21B7
:1001E00040235123211531054105510521F021E01E
:1001F00030E040E050E079018A01E628F72808293C
:1002000019293CC0232BD1F1260E371E350146019A
:10021000062E04C096948794779467940A94D2F734
:1002200021E030E040E050E004C0220F331F441FC3
:10023000551F6A95D2F721503040404050402A2146
:100240003B214C215D21211531054105510521F04E
:1002500021E030E040E050E059016A01A628B728CB
:10026000C828D9280BC0821593052CF01C01AA249C
:10027000BB24650103C0EE24FF24870111969C91E5
:10028000D20111968C91981709F445C0992339F041
:10029000A80197012A193B094C095D0906C0A6016E
:1002A00095012E193F09400B510B57FD08C01182D3
:1002B0003382228224833583468357831DC081E0A5
:1002C00081833382228288279927DC01821B930B4A
:1002D000A40BB50B84839583A683B7830DC0220F2F
:1002E000331F441F551F24833583468357838281E0
:1002F000938101979383828324813581468157813D
:10030000DA01C9010197A109B1098F5F9F4FAF4F72
:10031000BF4328F30BC0918333822282EA0CFB1C7B
:100320000C1D1D1DE482F5820683178383E0808304
:10033000248135814681578157FF1AC0C901AA27F8
:1003400097FDA095BA2F81709070A070B0705695EF
:10035000479537952795822B932BA42BB52B848318
:100360009583A683B7838281938101969383828349
:10037000DF0101C0D201CD01CDB7DEB7E2E10C94BF
:100380009917A0E2B0E0E7ECF1E00C9489176983DB
:100390007A838B839C832D833E834F835887E9E048
:1003A000EE2EF12CEC0EFD1ECE010196B7010E943F
:1003B000D2048E010F5E1F4FCE010596B8010E9438
:1003C000D2048A8991E089278A8BC701B801AE01DE
:1003D000475E5F4F0E9475000E94FD03A096E6E015
:1003E0000C94A517A0E2B0E0E8EFF1E00C948917B7
:1003F00069837A838B839C832D833E834F835887C5
:10040000F9E0EF2EF12CEC0EFD1ECE010196B701A6
:100410000E94D2048E010F5E1F4FCE010596B801D7
:100420000E94D204C701B801AE01475E5F4F0E942F
:1004300075000E94FD03A096E6E00C94A517A0E2CB
:10044000B0E0E5E2F2E00C947D1769837A838B8358
:100450009C832D833E834F835887CE010196BE0136
:10046000675F7F4F0E94D204CE010596BE016F5E8A
:100470007F4F0E94D2049985923088F0898982301A
:10048000C8F0943019F4823051F404C0843029F457
:10049000923081F48BE690E0C6C0923049F420E0BF
:1004A0009A858A89981321E02A87CE010996BBC0D4
:1004B000823049F420E09A858A89981321E02A8BBA
:1004C000CE014196B0C02D843E844F8458886D88FB
:1004D0007E888F88988CEE24FF248701AA24BB2471
:1004E000650140E050E060E070E0E0E0F0E0C10174
:1004F00081709070892BE9F0E60CF71C081D191D1E
:100500009A01AB012A0D3B1D4C1D5D1D80E090E062
:10051000A0E0B0E0E614F7040805190520F481E036
:1005200090E0A0E0B0E0BA01A901480F591F6A1F8E
:100530007B1FAA0CBB1CCC1CDD1C97FE08C081E0F5
:1005400090E0A0E0B0E0A82AB92ACA2ADB2A3196B6
:10055000E032F10549F0660C771C881C991C569412
:10056000479437942794C3CFFA85EA892B893C892D
:100570008B859C85280F391F2E5F3F4F17C0CA01FE
:1005800081709070892B61F016950795F794E79428
:1005900080E090E0A0E0B0E8E82AF92A0A2B1B2BC3
:1005A00076956795579547952F5F3F4F77FDE7CF36
:1005B0000CC0440F551F661F771F17FD4160EE0CDE
:1005C000FF1C001F111F21503040403090E05907A0
:1005D00090E0690790E4790760F32B8F3C8FDB0193
:1005E000CA018F779070A070B07080349105A1051A
:1005F000B10561F447FD0AC0E114F10401051105DC
:1006000029F0405C5F4F6F4F7F4F40781A8EFE1786
:1006100011F081E08A8F4D8F5E8F6F8F78A383E01A
:10062000898FCE0149960E94FD03A096E2E10C94C9
:100630009917A8E1B0E0EFE1F3E00C948917698322
:100640007A838B839C832D833E834F83588789E0F5
:10065000E82EF12CEC0EFD1ECE010196B7010E9492
:10066000D2048E010F5E1F4FCE010596B8010E9485
:10067000D2048985823040F08989823028F0C70110
:10068000B8010E944A0501C08FEF6896E6E00C941D
:10069000A517A8E1B0E0EFE4F3E00C9489176983B3
:1006A0007A838B839C832D833E834F83588789E095
:1006B000E82EF12CEC0EFD1ECE010196B7010E9432
:1006C000D2048E010F5E1F4FCE010596B8010E9425
:1006D000D2048985823040F08989823028F0C701B0
:1006E000B8010E944A0501C08FEF6896E6E00C94BD
:1006F000A517A8E1B0E0EFE7F3E00C948917698350
:100700007A838B839C832D833E834F83588789E034
:10071000E82EF12CEC0EFD1ECE010196B7010E94D1
:10072000D2048E010F5E1F4FCE010596B8010E94C4
:10073000D2048985823040F08989823028F0C7014F
:10074000B8010E944A0501C081E06896E6E00C9479
:10075000A517ACE0B0E0EFEAF3E00C948D176983E5
:100760007A838B839C83CE010196BE016B5F7F4FA2
:100770000E94D2048D81823061F1823050F1843048
:1007800021F48E81882351F12EC02F81388537FDC9
:1007900020C06E812F3131051CF06623F9F023C093
:1007A0008EE190E0821B930B29853A854B855C8511
:1007B00004C056954795379527958A95D2F76623B5
:1007C000B1F050954095309521953F4F4F4F5F4F79
:1007D0000EC020E030E040E050E009C02FEF3FEFD6
:1007E0004FEF5FE704C020E030E040E050E8B9019F
:1007F000CA012C96E2E00C94A917DF92EF92FF92C7
:100800000F931F93FC01E480F58006811781D1804E
:100810008081823048F480E090E0A0E1B0E0E82AF6
:10082000F92A0A2B1B2BA5C0843009F49FC0823003
:1008300021F4EE24FF24870105C0E114F104010531
:10084000110519F4E0E0F0E096C0628173819FEF3A
:10085000623879070CF05BC022E83FEF261B370BAC
:100860002A3131052CF020E030E040E050E02AC091
:10087000B801A701022E04C0769567955795479554
:100880000A94D2F781E090E0A0E0B0E004C0880FC5
:10089000991FAA1FBB1F2A95D2F70197A109B10979
:1008A0008E219F21A023B1230097A105B10521F03E
:1008B00081E090E0A0E0B0E09A01AB01282B392B59
:1008C0004A2B5B2BDA01C9018F779070A070B07052
:1008D00080349105A105B10539F427FF09C0205CDA
:1008E0003F4F4F4F5F4F04C0215C3F4F4F4F5F4F13
:1008F000E0E0F0E02030A0E03A07A0E04A07A0E402
:100900005A0710F0E1E0F0E079018A0127C0603871
:10091000710564F5FB01E158FF4FD801C7018F77DE
:100920009070A070B07080349105A105B10539F4C4
:10093000E7FE0DC080E490E0A0E0B0E004C08FE3EB
:1009400090E0A0E0B0E0E80EF91E0A1F1B1F17FFA1
:1009500005C016950795F794E794319687E01695AC
:100960000795F794E7948A95D1F705C0EE24FF2404
:100970008701EFEFF0E06E2F679566276795902F60
:100980009F77D794DD24D7948E2F8695492F462BB9
:10099000582F5D29B701CA011F910F91FF90EF9069
:1009A000DF900895FC01DB01408151812281622F9B
:1009B0006F7770E0221F2227221F9381892F880FD3
:1009C000822B282F30E0991F9927991F11969C930D
:1009D000119721153105A9F54115510561057105DD
:1009E00011F482E037C082E89FEF13969C938E93B8
:1009F00012979A01AB0167E0220F331F441F551F66
:100A00006A95D1F783E08C930DC0220F331F441FEA
:100A1000551F12968D919C911397019713969C9355
:100A20008E931297203080E0380780E0480780E4FA
:100A3000580758F314962D933D934D935C93179755
:100A400008952F3F310579F4411551056105710570
:100A500019F484E08C93089564FF03C081E08C93C3
:100A600012C01C9210C02F57304013963C932E9307
:100A7000129783E08C9387E0440F551F661F771F02
:100A80008A95D1F7706414964D935D936D937C9322
:100A9000179708951F93DC01FB019C91923008F495
:100AA00047C08081823008F443C0943051F41196DD
:100AB0001C91843099F58181682F70E0611B710968
:100AC0003FC0843021F0923031F48230B9F181811D
:100AD000882389F12DC011961C9111978230F1F075
:100AE00081811817D9F412962D913C911397828128
:100AF00093818217930794F028173907BCF0149656
:100B00008D919D910D90BC91A02D248135814681C0
:100B10005781281739074A075B0718F4112341F05A
:100B20000AC082179307A407B50740F4112319F0F0
:100B300061E070E005C06FEF7FEF02C060E070E041
:100B4000CB011F910895DF93CF93CDB7DEB72E97DA
:100B50000FB6F894DEBF0FBECDBF81E062E041E08A
:100B60000E94280980E090E0A0E0B0E48B879C8799
:100B7000AD87BE876B857C858D859E8520E030E0C6
:100B80004AEF54E40E941F02DC01CB018F83988757
:100B9000A987BA876F81788589859A8520E030E0BA
:100BA00040E85FE30E94790388232CF481E090E021
:100BB0009E838D833FC06F81788589859A8520E0EB
:100BC0003FEF4FE757E40E94190318164CF56B8569
:100BD0007C858D859E8520E030E040E251E40E94D6
:100BE0001F02DC01CB01BC01CD010E944900DC01E8
:100BF000CB019E838D830FC088EC90E09C838B8318
:100C00008B819C810197F1F79C838B838D819E81E1
:100C100001979E838D838D819E81009769F714C013
:100C20006F81788589859A850E944900DC01CB0116
:100C30009E838D838D819E819A83898389819A8108
:100C40000197F1F79A83898381E062E040E00E9496
:100C500028092E960FB6F894DEBF0FBECDBFCF91F8
:100C6000DF910895DF93CF930F92CDB7DEB78983DD
:100C700081E060E040E00E94280981E061E040E01E
:100C80000E94280980E069810E94A80B0E94A305A8
:100C90000F90CF91DF910895DF93CF930F92CDB74F
:100CA000DEB7898381E060E041E00E94280981E0AD
:100CB00061E040E00E94280980E069810E94A80B61
:100CC0000E94A3050F90CF91DF910895DF93CF93FA
:100CD000CDB7DEB72E970FB6F894DEBF0FBECDBFEF
:100CE00080E090E0A0E2B2E48B879C87AD87BE876E
:100CF0006B857C858D859E8520E030E04AEF54E44D
:100D00000E941F02DC01CB018F839887A987BA87D5
:100D10006F81788589859A8520E030E040E85FE33F
:100D20000E94790388232CF481E090E09E838D83D8
:100D30003FC06F81788589859A8520E03FEF4FE736
:100D400057E40E94190318164CF56B857C858D8538
:100D50009E8520E030E040E251E40E941F02DC0169
:100D6000CB01BC01CD010E944900DC01CB019E8377
:100D70008D830FC088EC90E09C838B838B819C815A
:100D80000197F1F79C838B838D819E8101979E83D0
:100D90008D838D819E81009769F714C06F8178855E
:100DA00089859A850E944900DC01CB019E838D8351
:100DB0008D819E819A83898389819A810197F1F738
:100DC0009A83898388E30E9432068CE00E9432066F
:100DD00081E00E9432062E960FB6F894DEBF0FBE59
:100DE000CDBFCF91DF910895DF93CF9300D000D096
:100DF000CDB7DEB79C838B831A828B819C81009751
:100E0000E1F019820EC08981282F30E08B819C810E
:100E1000FC01E20FF31F80810E944C0689818F5FE5
:100E200089838981282F30E08B819C81FC01E20F2E
:100E3000F31F8081882339F702C082E08A838A8188
:100E40000F900F900F900F90CF91DF910895DF9347
:100E5000CF93CDB7DEB761970FB6F894DEBF0FBE64
:100E6000CDBF6E877F87888B998B1A828E859F85F1
:100E7000A889B9890097A105B10521F480E30E94F2
:100E80004C0669C08E859F85A889B989BB230CF063
:100E900043C08DE20E944C068E859F85A889B98942
:100EA000B095A095909581959F4FAF4FBF4F8E877E
:100EB0009F87A88BB98B30C08E859F85A889B989FB
:100EC0002AE030E040E050E0BC01CD010E94401734
:100ED000DC01CB018B838E859F85A889B9892AE0A7
:100EE00030E040E050E0BC01CD010E944017DA0143
:100EF000C9018E879F87A88BB98B8A81282F30E004
:100F00008B81482F405DCE010496FC01E20FF31F58
:100F100040838A818F5F8A838E859F85A889B9895E
:100F20000097A105B10541F68A818150898310C0DF
:100F30008981282F332727FD3095CE010496FC01A7
:100F4000E20FF31F80810E944C06898181508983C2
:100F5000898188236CF761960FB6F894DEBF0FBEC7
:100F6000CDBFCF91DF910895DF93CF9300D00F9243
:100F7000CDB7DEB78A836B838B81882319F48A818E
:100F8000898306C08B81813019F48A81805C8983D2
:100F900089818068898389810E9432060F900F9031
:100FA0000F90CF91DF910895DF93CF93CDB7DEB748
:100FB00027970FB6F894DEBF0FBECDBF9C838B83FF
:100FC0006D834E832F838D81882F90E0880F991F2A
:100FD000880F991F880F991F8A838A8180648A836A
:100FE0008A810E94320619820EC08981282F30E042
:100FF0008B819C81FC01E20FF31F80810E944C06D3
:1010000089818F5F89838981883078F38E816F81B0
:101010000E94B4078D810E944C0627960FB6F89463
:10102000DEBF0FBECDBFCF91DF910895DF93CF9389
:10103000CDB7DEB728970FB6F894DEBF0FBECDBF91
:101040008A836B834C8319828B81883008F0F4C0CB
:101050008C81882309F077C08A81282F30E0388777
:101060002F838F8198858130910559F12F813885A3
:10107000223031052CF48F819885009769F060C08B
:101080002F8138852230310589F18F819885833011
:10109000910509F440C054C0AAE3B0E0EAE3F0E0EF
:1010A0008081482F8B81282F30E081E090E0022E54
:1010B00002C0880F991F0A94E2F7809584238C93CD
:1010C000BDC0A7E3B0E0E7E3F0E08081482F8B816B
:1010D000282F30E081E090E0022E02C0880F991F97
:1010E0000A94E2F7809584238C93A8C0A4E3B0E02F
:1010F000E4E3F0E08081482F8B81282F30E081E00D
:1011000090E0022E02C0880F991F0A94E2F78095A2
:1011100084238C9393C0A1E3B0E0E1E3F0E080810D
:10112000482F8B81282F30E081E090E0022E02C012
:10113000880F991F0A94E2F7809584238C937EC0D0
:1011400081E089837BC08C81813009F072C08A8103
:10115000282F30E03E832D838D819E818130910543
:1011600049F12D813E81223031052CF48D819E8103
:10117000009761F05BC02D813E812230310571F115
:101180008D819E8183309105E9F150C0AAE3B0E0E2
:10119000EAE3F0E08081482F8B81282F30E081E066
:1011A00090E0022E02C0880F991F0A94E2F7842B68
:1011B0008C9344C0A7E3B0E0E7E3F0E08081482FE0
:1011C0008B81282F30E081E090E0022E02C0880F52
:1011D000991F0A94E2F7842B8C9330C0A4E3B0E00B
:1011E000E4E3F0E08081482F8B81282F30E081E01C
:1011F00090E0022E02C0880F991F0A94E2F7842B18
:101200008C931CC0A1E3B0E0E1E3F0E08081482FC3
:101210008B81282F30E081E090E0022E02C0880F01
:10122000991F0A94E2F7842B8C9308C081E089838C
:1012300005C081E0898302C081E089838981289685
:101240000FB6F894DEBF0FBECDBFCF91DF910895EA
:10125000DF93CF93CDB7DEB728970FB6F894DEBFF4
:101260000FBECDBF8A836B834C8319828B818830FC
:1012700008F0F4C08C81882309F077C08A81282F78
:1012800030E038872F838F8198858130910559F11F
:101290002F813885223031052CF48F819885009775
:1012A00069F060C02F8138852230310589F18F8146
:1012B00098858330910509F440C054C0ABE3B0E099
:1012C000EBE3F0E08081482F8B81282F30E081E034
:1012D00090E0022E02C0880F991F0A94E2F78095D1
:1012E00084238C93BDC0A8E3B0E0E8E3F0E0808104
:1012F000482F8B81282F30E081E090E0022E02C041
:10130000880F991F0A94E2F7809584238C93A8C0D4
:10131000A5E3B0E0E5E3F0E08081482F8B81282F42
:1013200030E081E090E0022E02C0880F991F0A94FD
:10133000E2F7809584238C9393C0A2E3B0E0E2E3CC
:10134000F0E08081482F8B81282F30E081E090E011
:10135000022E02C0880F991F0A94E2F78095842319
:101360008C937EC081E089837BC08C81813009F0C1
:1013700072C08A81282F30E03E832D838D819E812B
:101380008130910549F12D813E81223031052CF4C7
:101390008D819E81009761F05BC02D813E8122305E
:1013A000310571F18D819E8183309105E9F150C045
:1013B000ABE3B0E0EBE3F0E08081482F8B81282F96
:1013C00030E081E090E0022E02C0880F991F0A945D
:1013D000E2F7842B8C9344C0A8E3B0E0E8E3F0E0AC
:1013E0008081482F8B81282F30E081E090E0022E11
:1013F00002C0880F991F0A94E2F7842B8C9330C0A7
:10140000A5E3B0E0E5E3F0E08081482F8B81282F51
:1014100030E081E090E0022E02C0880F991F0A940C
:10142000E2F7842B8C931CC0A2E3B0E0E2E3F0E08F
:101430008081482F8B81282F30E081E090E0022EC0
:1014400002C0880F991F0A94E2F7842B8C9308C07E
:1014500081E0898305C081E0898302C081E08983BE
:10146000898128960FB6F894DEBF0FBECDBFCF910D
:10147000DF910895DF93CF93CDB7DEB727970FB6EF
:10148000F894DEBF0FBECDBF8A836B835D834C8330
:1014900019828C819D81009709F47BC08B818830F3
:1014A00008F074C08A81282F30E03F832E834E815C
:1014B0005F814130510559F18E819F8182309105C4
:1014C00034F42E813F812115310569F05CC04E81D5
:1014D0005F814230510579F18E819F818330910582
:1014E00009F43DC050C0E9E3F0E08081282F30E0EE
:1014F0008B81882F90E0A90102C0559547958A9568
:10150000E2F7CA018170EC81FD81808344C0E6E38B
:10151000F0E08081282F30E08B81882F90E0A901B6
:1015200002C0559547958A95E2F7CA018170EC8112
:10153000FD81808330C0E3E3F0E08081282F30E03C
:101540008B81882F90E0A90102C0559547958A9517
:10155000E2F7CA018170EC81FD8180831CC0E0E369
:10156000F0E08081282F30E08B81882F90E0A90166
:1015700002C0559547958A95E2F7CA018170EC81C2
:10158000FD81808308C081E0898305C081E0898373
:1015900002C082E08983898127960FB6F894DEBF66
:1015A0000FBECDBFCF91DF910895DF93CF9300D0D1
:1015B00000D00F92CDB7DEB78A836B8319828B81FF
:1015C000883008F072C08A81282F30E03D832C8358
:1015D0008C819D818130910549F12C813D812230A2
:1015E00031052CF48C819D81009761F05BC02C81CA
:1015F0003D812230310571F18C819D8183309105CF
:10160000E9F150C0ABE3B0E0EBE3F0E08081482FBC
:101610008B81282F30E081E090E0022E02C0880FFD
:10162000991F0A94E2F784278C9341C0A8E3B0E0A5
:10163000E8E3F0E08081482F8B81282F30E081E0C3
:1016400090E0022E02C0880F991F0A94E2F78427C7
:101650008C932DC0A5E3B0E0E5E3F0E08081482F56
:101660008B81282F30E081E090E0022E02C0880FAD
:10167000991F0A94E2F784278C9319C0A2E3B0E083
:10168000E2E3F0E08081482F8B81282F30E081E079
:1016900090E0022E02C0880F991F0A94E2F7842777
:1016A0008C9305C081E0898302C082E089838981AF
:1016B0000F900F900F900F900F90CF91DF910895A2
:1016C000DF93CF9300D000D00F92CDB7DEB78A83DF
:1016D0006B8319828A81282F30E03D832C838C8193
:1016E0009D8181309105D1F02C813D8122303105E1
:1016F0002CF48C819D81009761F01FC02C813D816D
:101700002230310581F08C819D818330910581F0FB
:1017100014C0EAE3F0E08B81808311C0E7E3F0E0DE
:101720008B8180830CC0E4E3F0E08B81808307C071
:10173000E1E3F0E08B81808302C081E089838981CD
:101740000F900F900F900F900F90CF91DF91089511
:10175000DF93CF9300D000D00F92CDB7DEB78A834E
:101760006B8319828A81282F30E03D832C838C8102
:101770009D8181309105D1F02C813D812230310550
:101780002CF48C819D81009761F01FC02C813D81DC
:101790002230310581F08C819D818330910581F06B
:1017A00014C0EBE3F0E08B81808311C0E8E3F0E04C
:1017B0008B8180830CC0E5E3F0E08B81808307C0E0
:1017C000E2E3F0E08B81808302C081E0898389813C
:1017D0000F900F900F900F900F90CF91DF91089581
:1017E000DF93CF9300D000D000D0CDB7DEB78A838F
:1017F0007C836B8319828B819C81009709F43EC0A6
:101800008A81282F30E03E832D838D819E81813017
:101810009105E1F02D813E81223031052CF48D813E
:101820009E81009761F027C02D813E8122303105D5
:10183000A1F08D819E8183309105B1F01CC0E9E358
:10184000F0E08081EB81FC8180831AC0E6E3F0E068
:101850008081EB81FC81808313C0E3E3F0E0808131
:10186000EB81FC8180830CC0E0E3F0E08081EB81C0
:10187000FC81808305C081E0898302C081E0898387
:10188000898126960FB6F894DEBF0FBECDBFCF91EB
:10189000DF910895DF93CF93CDB7DEB7A0970FB652
:1018A000F894DEBF0FBECDBF8FEF8F8F1D8E67C147
:1018B0008D8D882F90E0FC01E957FF4F908183E0E8
:1018C000692F40E00E9428091E8E46C18E8D882F08
:1018D00090E0FC01ED57FF4F90819E01205E3F4F4D
:1018E00082E0692FA9010E943A0A88A1882309F0A1
:1018F00030C180E090E0A0EAB1E4898F9A8FAB8F8D
:10190000BC8F698D7A8D8B8D9C8D20E030E04AEF05
:1019100054E40E941F02DC01CB018D8B9E8BAF8BA8
:10192000B88F6D897E898F89988D20E030E040E8FE
:101930005FE30E94790388232CF481E090E09C8B84
:101940008B8B3FC06D897E898F89988D20E03FEF1A
:101950004FE757E40E94190318164CF5698D7A8DEC
:101960008B8D9C8D20E030E040E251E40E941F020C
:10197000DC01CB01BC01CD010E944900DC01CB019F
:101980009C8B8B8B0FC088EC90E09A8B898B89891C
:101990009A890197F1F79A8B898B8B899C8901979A
:1019A0009C8B8B8B8B899C89009769F714C06D8900
:1019B0007E898F89988D0E944900DC01CB019C8B28
:1019C0008B8B8B899C89988B8F878F8598890197C2
:1019D000F1F7988B8F878E8D882F90E0FC01ED5763
:1019E000FF4F90819E01205E3F4F82E0692FA90149
:1019F0000E943A0A88A1882309F0A7C08E8D482F3B
:101A000050E08D8D282F30E0CA01880F991F880F74
:101A1000991F820F931FFC01ED58FF4F80818F8F1C
:101A200094C08E8D882F90E0FC01ED57FF4F908180
:101A30009E01205E3F4F82E0692FA9010E943A0A71
:101A400088A1813009F081C080E090E0A0EAB1E493
:101A50008B879C87AD87BE876B857C858D859E85B2
:101A600020E030E04AEF54E40E941F02DC01CB0189
:101A70008F839887A987BA876F81788589859A85AA
:101A800020E030E040E85FE30E94790388232CF4F3
:101A900081E090E09E838D833FC06F81788589854A
:101AA0009A8520E03FEF4FE757E40E94190318168C
:101AB0004CF56B857C858D859E8520E030E040E28D
:101AC00051E40E941F02DC01CB01BC01CD010E9448
:101AD0004900DC01CB019E838D830FC088EC90E030
:101AE0009C838B838B819C810197F1F79C838B83F3
:101AF0008D819E8101979E838D838D819E8100972C
:101B000069F714C06F81788589859A850E9449009C
:101B1000DC01CB019E838D838D819E819A83898395
:101B200089819A810197F1F79A8389838E8D882F15
:101B300090E0FC01ED57FF4F90819E01205E3F4FEA
:101B400082E0692FA9010E943A0A88A1882309F43A
:101B500068CF8E8D8F5F8E8F8E8D843008F4B6CED9
:101B60008D8D882F90E0FC01E957FF4F908183E035
:101B7000692F41E00E9428098D8D8F5F8D8F8D8D9B
:101B8000843008F495CE8F8DA0960FB6F894DEBF02
:101B90000FBECDBFCF91DF910895DF93CF93CDB727
:101BA000DEB7EAE3F0E08FEF8083E7E3F0E08FEF6A
:101BB0008083E4E3F0E080EF8083E1E3F0E08FEF07
:101BC0008083EBE3F0E01082E8E3F0E08FEF8083C6
:101BD000E5E3F0E08FEF8083E2E3F0E08FE08083E5
:101BE000CF91DF9108950F931F93DF93CF93CDB7DC
:101BF000DEB7CC55D0400FB6F894DEBF0FBECDBFD8
:101C0000FE01E45AFF4F8FEF8083FE01E55AFF4F3C
:101C10001082FE01E65AFF4F1082FE01E75AFF4F85
:101C20001082FE01E85AFF4F10820E94CD0D0E94E3
:101C3000660680E30E944C0680E30E944C068AE31D
:101C40000E944C0680E30E944C0680E30E944C06F2
:101C50008AE30E944C0680E30E944C0680E30E94C7
:101C60004C068BE890E060E040E021E00E94D40761
:101C70000E944A0CFE01E45AFF4F8083FE01E45AA1
:101C8000FF4F80818F3FA1F3FE01E55AFF4F808116
:101C9000882309F062C0FE01E45AFF4F80818F3033
:101CA00059F58CE990E0FE01E55AFF4FDE01A55A97
:101CB000BF4F60814C9121E00E94D407DE01A55AFC
:101CC000BF4FFE01E55AFF4F80818F5F8C93FE016D
:101CD000E55AFF4F808160E00E94B4078BE890E0F6
:101CE000FE01E55AFF4FDE01A55ABF4F60814C91BE
:101CF00021E00E94D40734C3FE01E45AFF4F8081E3
:101D00008F3009F42DC3FE01E45AFF4F80818D30DE
:101D100009F426C3FE01E45AFF4F8081803109F4A3
:101D20001FC3FE01E55AFF4F808160E00E94B407A7
:101D3000DE01A65ABF4FFE01E45AFF4F80818C930B
:101D4000FE01E45AFF4F8081882F90E0A0E0B0E0D0
:101D5000BC01CD010E94270703C3FE01E55AFF4FD6
:101D60008081813009F0A5C0FE01E45AFF4F8081D7
:101D70008F3059F58CE990E0FE01E55AFF4FDE0106
:101D8000A55ABF4F60814C9121E00E94D407DE012B
:101D9000A55ABF4FFE01E55AFF4F80818E5F8C939D
:101DA000FE01E55AFF4F808160E00E94B4078BE896
:101DB00090E0FE01E55AFF4FDE01A55ABF4F60815A
:101DC0004C9121E00E94D407CBC2FE01E45AFF4FA0
:101DD00080818D3059F58CE990E0FE01E55AFF4F86
:101DE000DE01A55ABF4F60814C9121E00E94D407CB
:101DF000DE01A55ABF4FFE01E55AFF4F8081815099
:101E00008C93FE01E55AFF4F808160E00E94B40789
:101E10008BE890E0FE01E55AFF4FDE01A55ABF4F67
:101E200060814C9121E00E94D4079AC2FE01E45ADD
:101E3000FF4F80818F3009F493C2FE01E45AFF4FB7
:101E400080818D3009F48CC2FE01E45AFF4F8081FD
:101E5000803109F485C2FE01E55AFF4F808160E0C0
:101E60000E94B407FE01E65AFF4F8081882F90E060
:101E70009C01220F331FC901880F991F880F991FDA
:101E8000820F931F982FDE01A65ABF4FFE01E45A1E
:101E9000FF4F8081890F8C93FE01E45AFF4F8081B0
:101EA000882F90E0A0E0B0E0BC01CD010E942707A0
:101EB00057C2FE01E55AFF4F8081833009F093C07D
:101EC000FE01E45AFF4F80818F3059F58CE990E094
:101ED000FE01E55AFF4FDE01A55ABF4F60814C91CC
:101EE00021E00E94D407DE01A55ABF4FFE01E55A4A
:101EF000FF4F80818F5F8C93FE01E55AFF4F8081F9
:101F000060E00E94B4078BE890E0FE01E55AFF4FC5
:101F1000DE01A55ABF4F60814C9121E00E94D40799
:101F20001FC2FE01E45AFF4F80818D3059F58CE9C4
:101F300090E0FE01E55AFF4FDE01A55ABF4F6081D8
:101F40004C9121E00E94D407DE01A55ABF4FFE014B
:101F5000E55AFF4F808182508C93FE01E55AFF4F76
:101F6000808160E00E94B4078BE890E0FE01E55AB2
:101F7000FF4FDE01A55ABF4F60814C9121E00E94C6
:101F8000D407EEC1FE01E45AFF4F80818F3009F47F
:101F9000E7C1FE01E45AFF4F80818D3009F4E0C1B2
:101FA000FE01E45AFF4F8081803109F4D9C1FE015E
:101FB000E55AFF4F808160E00E94B407DE01A75A16
:101FC000BF4FFE01E45AFF4F80818C93FE01E45A1B
:101FD000FF4F8081882F90E0A0E0B0E0BC01CD01F0
:101FE0000E942707BDC1FE01E55AFF4F8081843062
:101FF00009F0A5C0FE01E45AFF4F80818F3059F5EA
:102000008CE990E0FE01E55AFF4FDE01A55ABF4F73
:1020100060814C9121E00E94D407DE01A55ABF4F98
:10202000FE01E55AFF4F80818E5F8C93FE01E55AD9
:10203000FF4F808160E00E94B4078BE890E0FE01D2
:10204000E55AFF4FDE01A55ABF4F60814C9121E058
:102050000E94D40785C1FE01E45AFF4F80818D3074
:1020600059F58CE990E0FE01E55AFF4FDE01A55AD3
:10207000BF4F60814C9121E00E94D407DE01A55A38
:10208000BF4FFE01E55AFF4F808181508C93FE01C6
:10209000E55AFF4F808160E00E94B4078BE890E032
:1020A000FE01E55AFF4FDE01A55ABF4F60814C91FA
:1020B00021E00E94D40754C1FE01E45AFF4F808101
:1020C0008F3009F44DC1FE01E45AFF4F80818D30FD
:1020D00009F446C1FE01E45AFF4F8081803109F4C2
:1020E0003FC1FE01E55AFF4F808160E00E94B407C6
:1020F000FE01E75AFF4F8081882F90E09C01220F5C
:10210000331FC901880F991F880F991F820F931FD2
:10211000982FDE01A75ABF4FFE01E45AFF4F80817E
:10212000890F8C93FE01E45AFF4F8081882F90E045
:10213000A0E0B0E0BC01CD010E94270711C1FE0163
:10214000E55AFF4F8081863009F093C0FE01E45AC2
:10215000FF4F80818F3059F58CE990E0FE01E55A00
:10216000FF4FDE01A55ABF4F60814C9121E00E94D4
:10217000D407DE01A55ABF4FFE01E55AFF4F80810B
:102180008F5F8C93FE01E55AFF4F808160E00E94D3
:10219000B4078BE890E0FE01E55AFF4FDE01A55A37
:1021A000BF4F60814C9121E00E94D407D9C0FE014D
:1021B000E45AFF4F80818D3059F58CE990E0FE01A3
:1021C000E55AFF4FDE01A55ABF4F60814C9121E0D7
:1021D0000E94D407DE01A55ABF4FFE01E55AFF4F0A
:1021E000808182508C93FE01E55AFF4F808160E030
:1021F0000E94B4078BE890E0FE01E55AFF4FDE0134
:10220000A55ABF4F60814C9121E00E94D407A8C01D
:10221000FE01E45AFF4F80818F3009F4A1C0FE0116
:10222000E45AFF4F80818D3009F49AC0FE01E45AD0
:10223000FF4F8081803109F493C0FE01E55AFF4FC2
:10224000808160E00E94B407DE01A85ABF4FFE0102
:10225000E45AFF4F80818C93FE01E45AFF4F808146
:10226000882F90E0A0E0B0E0BC01CD010E942707DC
:1022700077C0FE01E55AFF4F8081873009F070C0BA
:10228000FE01E45AFF4F80818D3059F58CE990E0D2
:10229000FE01E55AFF4FDE01A55ABF4F60814C9108
:1022A00021E00E94D407DE01A55ABF4FFE01E55A86
:1022B000FF4F808181508C93FE01E55AFF4F808152
:1022C00060E00E94B4078BE890E0FE01E55AFF4F02
:1022D000DE01A55ABF4F60814C9121E00E94D407D6
:1022E0003FC0FE01E45AFF4F80818F30C9F1FE01EB
:1022F000E45AFF4F80818D3099F1FE01E45AFF4F7F
:102300008081803169F1FE01E55AFF4F808160E0F4
:102310000E94B407FE01E85AFF4F8081882F90E0A9
:102320009C01220F331FC901880F991F880F991F25
:10233000820F931F982FDE01A85ABF4FFE01E45A67
:10234000FF4F8081890F8C93FE01E45AFF4F8081FB
:10235000882F90E0A0E0B0E0BC01CD010E942707EB
:10236000FE01E45AFF4F8081803109F082C58CE97B
:1023700090E0FE01E55AFF4FDE01A55ABF4F608194
:102380004C9121E00E94D407FE01E85AFF4F808162
:10239000882309F494C1FE01EA5AFF4FDE01A85ACE
:1023A000BF4F8C91808384C1DE01A85ABF4FFE01CC
:1023B000E85AFF4F808181508C93FE01E85AFF4F0D
:1023C00080818A3008F4C5C086E060E00E94B407CE
:1023D000FE01E85AFF4F8081882F90E0A0E0B0E036
:1023E000BC01CD010E942707FE01EF5AFF4F80E09C
:1023F00090E0AAE7B4E480839183A283B3838E0143
:10240000035B1F4FFE01EF5AFF4F60817181828194
:10241000938120E030E04AEF54E40E941F02DC0187
:10242000CB01F80180839183A283B383FE01E35B38
:10243000FF4F608171818281938120E030E040E82C
:102440005FE30E947903882344F4FE01E55BFF4FBC
:1024500081E090E09183808364C0FE01E35BFF4FE5
:10246000608171818281938120E03FEF4FE757E4E3
:102470000E94190318160CF043C0FE01EF5AFF4FDB
:10248000608171818281938120E030E040E251E4FB
:102490000E941F02DC01CB018E01055B1F4FBC01B6
:1024A000CD010E944900DC01CB01F80191838083BA
:1024B0001FC0FE01E75BFF4F88EC90E091838083B3
:1024C000FE01E75BFF4F808191810197F1F7FE01EB
:1024D000E75BFF4F91838083DE01A55BBF4FFE0169
:1024E000E55BFF4F80819181019711969C938E93BC
:1024F000FE01E55BFF4F808191810097D1F6CFC04F
:102500008E01055B1F4FFE01E35BFF4F6081718110
:10251000828193810E944900DC01CB01F801918303
:102520008083DE01A95BBF4FFE01E55BFF4F808129
:10253000918111969C938E93FE01E95BFF4F808100
:1025400091810197F1F7FE01E95BFF4F9183808351
:10255000A6C0FE01E85AFF4F80818A3008F09FC074
:1025600086E060E00E94B40760E070E080E090E008
:102570000E94270787E060E00E94B407FE01E85A46
:10258000FF4F8081882F90E0A0E0B0E0BC01CD013A
:102590000E942707FE01ED5BFF4F80E090E0AAE775
:1025A000B4E480839183A283B3838E01015C1F4FC7
:1025B000FE01ED5BFF4F608171818281938120E09C
:1025C00030E04AEF54E40E941F02DC01CB01F80125
:1025D00080839183A283B383FE01FF966081718122
:1025E0008281938120E030E040E85FE30E9479033C
:1025F00088232CF481E090E09EAF8DAF46C0FE01B1
:10260000FF96608171818281938120E03FEF4FE7E7
:1026100057E40E941903181664F5FE01ED5BFF4FA5
:10262000608171818281938120E030E040E251E459
:102630000E941F02DC01CB01BC01CD010E944900B8
:10264000DC01CB019EAF8DAF0FC088EC90E09CAF5A
:102650008BAF8BAD9CAD0197F1F79CAF8BAF8DAD80
:102660009EAD01979EAF8DAF8DAD9EAD009769F782
:1026700016C0FE01FF9660817181828193810E9464
:102680004900DC01CB019EAF8DAF8DAD9EAD9AAF01
:1026900089AF89AD9AAD0197F1F79AAF89AFDE01A5
:1026A000AA5ABF4FFE01EA5AFF4F808181508C9396
:1026B000FE01EA5AFF4F8081882309F075CEFE01A2
:1026C000E85AFF4F8081882309F0D3C3FE01E75AFF
:1026D000FF4F8081882309F49AC1FE01EB5AFF4F16
:1026E000DE01A75ABF4F8C9180838AC1DE01A75AB1
:1026F000BF4FFE01E75AFF4F808181508C93FE014E
:10270000E75AFF4F80818A3088F083E060E00E94C2
:10271000B407FE01E75AFF4F8081882F90E0A0E0C8
:10272000B0E0BC01CD010E94270720C0FE01E75A9E
:10273000FF4F80818A30D0F483E060E00E94B407CC
:1027400060E070E080E090E00E94270784E060E0B5
:102750000E94B407FE01E75AFF4F8081882F90E066
:10276000A0E0B0E0BC01CD010E942707FE01E85ABD
:10277000FF4F8CE38083FE01E95AFF4F8CE3808397
:102780002FC1DE01A85ABF4FFE01E85AFF4F8081DA
:1027900081508C93FE01E85AFF4F80818A3008F403
:1027A00083C086E060E00E94B407FE01E85AFF4F54
:1027B0008081882F90E0A0E0B0E0BC01CD010E94B4
:1027C000270780E090E0AAE7B4E48DAB9EABAFAB07
:1027D000B8AF6DA97EA98FA998AD20E030E04AEF8F
:1027E00054E40E941F02DC01CB0189AB9AABABAB76
:1027F000BCAB69A97AA98BA99CA920E030E040E88C
:102800005FE30E94790388232CF481E090E098AB89
:102810008FA73FC069A97AA98BA99CA920E03FEFA7
:102820004FE757E40E94190318164CF56DA97EA9CD
:102830008FA998AD20E030E040E251E40E941F02F1
:10284000DC01CB01BC01CD010E944900DC01CB01C0
:1028500098AB8FA70FC088EC90E09EA78DA78DA5A1
:102860009EA50197F1F79EA78DA78FA598A901971F
:1028700098AB8FA78FA598A9009769F7A8C069A9F9
:102880007AA98BA99CA90E944900DC01CB0198ABD5
:102890008FA78FA598A99CA78BA78BA59CA501970F
:1028A000F1F79CA78BA793C0FE01E85AFF4F8081E8
:1028B0008A3008F08CC086E060E00E94B40760E0D7
:1028C00070E080E090E00E94270787E060E00E94CF
:1028D000B407FE01E85AFF4F8081882F90E0A0E006
:1028E000B0E0BC01CD010E94270780E090E0AAE79C
:1028F000B4E48FA398A7A9A7BAA76FA178A589A5C3
:102900009AA520E030E04AEF54E40E941F02DC0167
:10291000CB018BA39CA3ADA3BEA36BA17CA18DA176
:102920009EA120E030E040E85FE30E947903882325
:102930002CF481E090E09AA389A33FC06BA17CA115
:102940008DA19EA120E03FEF4FE757E40E941903BD
:1029500018164CF56FA178A589A59AA520E030E05E
:1029600040E251E40E941F02DC01CB01BC01CD0119
:102970000E944900DC01CB019AA389A30FC088EC17
:1029800090E098A38F8F8F8D98A10197F1F798A36E
:102990008F8F89A19AA101979AA389A389A19AA14E
:1029A000009769F714C06BA17CA18DA19EA10E9424
:1029B0004900DC01CB019AA389A389A19AA19E8F2A
:1029C0008D8F8D8D9E8D0197F1F79E8F8D8FDE01FE
:1029D000A95ABF4FFE01E95AFF4F808181508C9365
:1029E000FE01E95AFF4F8081882309F0CACEDE013B
:1029F000AB5ABF4FFE01EB5AFF4F808181508C9341
:102A0000FE01EB5AFF4F8081882309F06FCEFE0153
:102A1000E65AFF4F8081882309F4F5C1FE01E95A87
:102A2000FF4FDE01A65ABF4F8C918083E5C1DE01C6
:102A3000A65ABF4FFE01E65AFF4F808181508C930A
:102A4000FE01E65AFF4F80818A3088F080E060E026
:102A50000E94B407FE01E65AFF4F8081882F90E064
:102A6000A0E0B0E0BC01CD010E94270720C0FE011C
:102A7000E65AFF4F80818A30D0F480E060E00E9407
:102A8000B40760E070E080E090E00E94270781E0FA
:102A900060E00E94B407FE01E65AFF4F8081882F54
:102AA00090E0A0E0B0E0BC01CD010E942707FE014C
:102AB000E75AFF4F8CE38083FE01EB5AFF4F8CE314
:102AC00080838AC1DE01A75ABF4FFE01E75AFF4F3C
:102AD000808181508C93FE01E75AFF4F80818A30BC
:102AE00088F083E060E00E94B407FE01E75AFF4FE0
:102AF0008081882F90E0A0E0B0E0BC01CD010E9471
:102B0000270720C0FE01E75AFF4F80818A30D0F4AA
:102B100083E060E00E94B40760E070E080E090E055
:102B20000E94270784E060E00E94B407FE01E75A94
:102B3000FF4F8081882F90E0A0E0B0E0BC01CD0184
:102B40000E942707FE01E85AFF4F8CE38083FE01B5
:102B5000E95AFF4F8CE380832FC1DE01A85ABF4F93
:102B6000FE01E85AFF4F808181508C93FE01E85AA4
:102B7000FF4F80818A3008F483C086E060E00E94C5
:102B8000B407FE01E85AFF4F8081882F90E0A0E053
:102B9000B0E0BC01CD010E94270780E090E0AAE7E9
:102BA000B4E4898F9A8FAB8FBC8F698D7A8D8B8DB2
:102BB0009C8D20E030E04AEF54E40E941F02DC01CB
:102BC000CB018D8B9E8BAF8BB88F6D897E898F8962
:102BD000988D20E030E040E85FE30E94790388238D
:102BE0002CF481E090E09C8B8B8B3FC06D897E89BB
:102BF0008F89988D20E03FEF4FE757E40E9419033B
:102C000018164CF5698D7A8D8B8D9C8D20E030E007
:102C100040E251E40E941F02DC01CB01BC01CD0166
:102C20000E944900DC01CB019C8B8B8B0FC088EC90
:102C300090E09A8B898B89899A890197F1F79A8B11
:102C4000898B8B899C8901979C8B8B8B8B899C8929
:102C5000009769F7A8C06D897E898F89988D0E9439
:102C60004900DC01CB019C8B8B8B8B899C89988BD9
:102C70008F878F8598890197F1F7988B8F8793C0FD
:102C8000FE01E85AFF4F80818A3008F08CC086E050
:102C900060E00E94B40760E070E080E090E00E9495
:102CA000270787E060E00E94B407FE01E85AFF4F63
:102CB0008081882F90E0A0E0B0E0BC01CD010E94AF
:102CC000270780E090E0AAE7B4E48B879C87AD8774
:102CD000BE876B857C858D859E8520E030E04AEF40
:102CE00054E40E941F02DC01CB018F839887A987DF
:102CF000BA876F81788589859A8520E030E040E841
:102D00005FE30E94790388232CF481E090E09E83A6
:102D10008D833FC06F81788589859A8520E03FEF5C
:102D20004FE757E40E94190318164CF56B857C8514
:102D30008D859E8520E030E040E251E40E941F0234
:102D4000DC01CB01BC01CD010E944900DC01CB01BB
:102D50009E838D830FC088EC90E09C838B838B8156
:102D60009C810197F1F79C838B838D819E810197D4
:102D70009E838D838D819E81009769F714C06F813A
:102D8000788589859A850E944900DC01CB019E8364
:102D90008D838D819E819A83898389819A81019710
:102DA000F1F79A838983DE01A95ABF4FFE01E95AE0
:102DB000FF4F808181508C93FE01E95AFF4F808143
:102DC000882309F0CACEDE01AB5ABF4FFE01EB5A91
:102DD000FF4F808181508C93FE01EB5AFF4F808121
:102DE000882309F06FCEDE01A95ABF4FFE01E95AD0
:102DF000FF4F808181508C93FE01E95AFF4F808103
:102E0000882309F014CEFE01E75AFF4F8081882302
:102E100081F5FE01E65AFF4F8081882351F5FE01BE
:102E2000E85AFF4F8081882321F581E061E00E940C
:102E3000B40783E990E061E041E021E00E94D4071B
:102E400083E061E00E94B40780E690E00E94F4060F
:102E500083E067E041E00E942809C45ADF4F0FB6C3
:102E6000F894DEBF0FBECDBFCF91DF911F910F91C0
:102E70000895FE01E45AFF4F8FEF80830C94380EC3
:102E800097FB092E05260ED057FD04D014D00AD08A
:102E9000001C38F450954095309521953F4F4F4F89
:102EA0005F4F0895F6F790958095709561957F4FE7
:102EB0008F4F9F4F0895A1E21A2EAA1BBB1BFD0145
:102EC0000DC0AA1FBB1FEE1FFF1FA217B307E40709
:102ED000F50720F0A21BB30BE40BF50B661F771F61
:102EE000881F991F1A9469F7609570958095909541
:102EF0009B01AC01BD01CF0108952F923F924F92EB
:102F00005F926F927F928F929F92AF92BF92CF9279
:102F1000DF92EF92FF920F931F93CF93DF93CDB782
:102F2000DEB7CA1BDB0B0FB6F894DEBF0FBECDBFFA
:102F300009942A88398848885F846E847D848C84CB
:102F40009B84AA84B984C884DF80EE80FD800C81D4
:102F50001B81AA81B981CE0FD11D0FB6F894DEBFB7
:0C2F60000FBECDBFED010895F894FFCF27
:102F6C0054696D65206973207570000000000000C5
:102F7C000000000102030004050600070809000D0B
:102F8C00000F100001020300010203040E1F0404D1
:0C2F9C000404000E0E0E041F04041F00AD
:00000001FF
